:020000040800F2
:1000000080090020F9020008BB030008B7030008BC
:10001000B9030008B3030008BD0400080000000095
:10002000000000000000000000000000390200088D
:10003000B50300080000000095020008BD03000899
:100040001303000813030008130300081303000838
:100050001303000813030008130300081303000828
:100060001303000813030008130300081303000818
:100070001303000813030008130300081303000808
:100080001303000813030008130300080000000016
:100090000000000000000000000000001303000842
:1000A00013030008130300081303000813030008D8
:1000B00013030008130300081303000813030008C8
:1000C00013030008130300081303000813030008B8
:1000D00013030008130300081303000800000000C6
:1000E00013030008130300081303000800000000B6
:1000F00000000000000000000000000013030008E2
:100100000000000013030008130300081303000895
:1001100000000000000000000000000000000000DF
:100120001303000813030008130300081303000857
:1001300013030008000000000000000000000000A1
:100140000000000000000000000000001303000891
:100150001303000813030008130300081303000827
:100160001303000813030008000000000000000053
:10017000000000000000000000000000000000007F
:100180000000000013030008000000000000000051
:10019000130300081303000800F002F800F03CF815
:1001A0000AA090E8000C82448344AAF10107DA45D2
:1001B00001D100F031F8AFF2090EBAE80F0013F0E8
:1001C000010F18BFFB1A43F0010318475C0400003D
:1001D0007C040000103A24BF78C878C1FAD85207CE
:1001E00024BF30C830C144BF04680C6070470000B1
:1001F0000023002400250026103A28BF78C1FBD830
:10020000520728BF30C148BF0B6070471FB500F0D0
:1002100005FA1FBD10B510BD00F091F81146FFF7AB
:10022000F5FF00F04CF900F0AFF803B4FFF7F2FF70
:1002300003BC00F0B7F800002C4B19680868B0E860
:10024000F04F80F30988BFF36F8F4FF0000080F309
:10025000118870470000000008480068006880F3BB
:1002600008884FF0000080F3148862B661B6BFF3CF
:100270004F8FBFF36F8F00DF00BF00BF08ED00E0BE
:10028000DFF80C00016841F470010160704700BFA5
:1002900088ED00E0EFF30980BFF36F8F134B1A680E
:1002A0001EF0100F08BF20ED108A20E9F04F1060FB
:1002B00009B44FF0100080F31188BFF34F8FBFF3E4
:1002C0006F8F00F01DF94FF0000080F3118809BC1A
:1002D00019680868B0E8F04F1EF0100F08BFB0ECC6
:1002E000108A80F30988BFF36F8F704700000020E9
:1002F000EFF3058070470000094880470948004730
:10030000FEE7FEE7FEE7FEE7FEE7FEE7FEE7FEE7C5
:10031000FEE7FEE704480549054A064B7047000022
:10032000E9030008990100088003002080090020EB
:100330008005002080050020704770477047754693
:1003400000F02CF8AE4605006946534620F0070041
:10035000854618B020B5FFF7DDFFBDE820404FF01F
:1003600000064FF000074FF000084FF0000B21F09F
:100370000701AC46ACE8C009ACE8C009ACE8C0096C
:10038000ACE8C0098D46704710B50446AFF3008055
:100390002046BDE81040FFF748BF00000048704706
:1003A0002003002001491820ABBEFEE72600020012
:1003B0007047FEE77047FEE7FEE7704710B5102074
:1003C00080F31188BFF34F8FBFF36F8F00F0BCF83D
:1003D00018B104494FF080500860002080F3118864
:1003E00010BD000004ED00E02B48016841F47001ED
:1003F00001602A49086840F001000860284800238D
:1004000003600A6822F4102222F080720A60021F40
:10041000DFF890C0C2F800C0D1F800C02CF4802CE6
:10042000C1F800C000F1040CCCF800301E4BD3F82A
:1004300000C04CF0805CC3F800C01C4BD3F800C077
:100440004CF4404CC3F800C00368036003680360C9
:10045000036843F480530360154B13600A6842F04D
:1004600080720A600A6812F0007FFBD0114A40F2E5
:1004700002711160016821F003010160016841F01F
:1004800002010160016801F00C010829FAD1080697
:10049000094908607047000088ED00E0003802401C
:1004A00008380240103000244038024000700040FC
:1004B00010640107003C024008ED00E0FEE7FEE7A3
:1004C000D0E9013201699A60D0E901235A604A6893
:1004D000824204BF82684A60002202610868401EAE
:1004E00008600868704742684A6093688B60936848
:1004F0005960916008610168491C01607047000003
:100500000F48016B00291EBF0121C1617047002106
:10051000C16101690B4AB1FA81F1C1F11F0101EB1F
:10052000810102EB810101F108034A6852684A60C7
:100530009A4204BF52684A60D16801607047000067
:10054000000000203C0000202DE9F047314D00273D
:10055000286B48B1A869401CA861E869002818BF49
:1005600001273846BDE8F087E868461CEE604FF08A
:10057000FF3912D1686BA96B6963A863286A401CB4
:100580002862686B0068002808BFC5F8289004D06E
:10059000686BC068C0684068A862A86ADFF87880A5
:1005A000B04298BF4FF0010A0CD8686B006838B1B0
:1005B000686BC068C468606886420DD2A86201E0BA
:1005C000C5F828902868C06A00EB800058F8200021
:1005D000012888BF0127C0E7201DFFF771FFA06A2F
:1005E00000281CBF04F11800FFF76AFFE06A2A69BF
:1005F0000AFA00F11143296100EB800008EB80004A
:10060000211DFFF770FFE06A2968C96A884228BF88
:100610000127CAE7000000203C0000204FF0407096
:10062000E1EE100A704700004806000800000020B4
:100630003C000000D4010008840600083C000020B3
:1006400044090000F0010008000000000000000064
:10065000000000000000000000000000000000009A
:10066000000000000000000000000000000000008A
:10067000000000000000000000000000000000007A
:040680000000000076
:040000050800019955
:00000001FF
